:100000000C947A000C94A2000C94A2000C94A20010
:100010000C94A2000C94A2000C94A2000C94A200D8
:100020000C94A2000C94A2000C94A2000C94A200C8
:100030000C94A2000C94A2000C94A2000C94A200B8
:100040000C94010F0C94A2000C942A080C94040840
:100050000C94A2000C94A2000C94A2000C94A20098
:100060000C9439050C94A2001E00E8033200B80B72
:100070001E00D0073C00D00700000000250028002B
:100080002B0000000008000201000003040700002C
:10009000000000000000005EBCE2613FDD83C29C06
:1000A0007E20A3FD1F41009D23BE46DB65F88C1119
:1000B000AF32CA57E974000000002300260029006F
:1000C00004040404040404040202020202020303FE
:1000D0000303030301020408102040800102040806
:1000E0001020010204081020000000002400270056
:1000F0002A00C81611241FBECFEFD8E0DEBFCDBF47
:1001000012E0A0E0B1E0E2E8F7E302C005900D9252
:10011000A037B107D9F724E0A0E7B2E001C01D92F3
:10012000AD35B207E1F710E0CAE7D0E004C021978F
:10013000FE010E945018C937D107C9F70E944B0F22
:100140000C94BF1B0C9400000895089508952AE6AE
:1001500031E0DC012D933C9380919B0290919C02B5
:10016000009739F0DC01ED91FC910480F581E02DE0
:10017000099510929C0210929B0208950895409157
:10018000C402262F30E0240F311D21323105DCF46A
:1001900020910F032430C9F4FC0180E090E0861721
:1001A00058F43091C4022191DC01AC55BD4FA30F2E
:1001B000B11D2C930196F3CF8091C402680F609318
:1001C000C40280E0089581E0089582E008950895D2
:1001D000E091A2028091A102E81730F4F0E0E55826
:1001E000FD4F808190E008958FEF9FEF08959091EB
:1001F000A2028091A102981750F4E92FF0E0E5588F
:10020000FD4F208130E09F5F9093A20202C02FEF4C
:100210003FEFC90108958091A10290E02091A202D0
:10022000821B91090895CF92DF92EF92FF920F9374
:100230001F93CF93DF937C01CB018A01209115039B
:10024000222389F0EB016B01C40ED51ECC15DD0510
:1002500069F06991D701ED91FC910190F081E02D59
:10026000C7010995F3CF642F0E94BF00C801DF9139
:10027000CF911F910F91FF90EF90DF90CF90089555
:10028000CF93DF931F92CDB7DEB76983209115031B
:100290002223D1F020913703203240F021E030E0DA
:1002A000FC013383228380E090E015C08091160327
:1002B000E82FF0E0E95EFC4F998190838F5F809397
:1002C00016038093370305C061E0CE0101960E94BA
:1002D000BF0081E090E00F90DF91CF910895CF9320
:1002E000DF93EC010E94A700CE01DF91CF910C9427
:1002F000311B0C94311B0C94311B0C94F50E8F9216
:100300009F92AF92BF92CF92DF92EF92FF920F93A4
:100310001F93CF93DF936B017C01142F9B01AC01E2
:100320000E94941A882319F06DEE71E027C04601EF
:100330005701E894B7F82FEF3FEF4FE75FE7C501AC
:10034000B4010E94941A81110DC02FEF3FEF4FE7C7
:100350005FE7C501B4010E94C31818161CF461EFD1
:1003600071E00CC02FEF3FEF4FE75FE4C701B6012C
:100370000E94221A181694F465EF71E084E493E069
:10038000DF91CF911F910F91FF90EF90DF90CF9071
:10039000BF90AF909F908F900C94A4072FEF3FEFEA
:1003A0004FE75FECC701B6010E94C31887FDE4CF99
:1003B00020E030E0A901C701B6010E94C31887FF01
:1003C0000BC06DE284E493E00E94FA06EC01F7FAB8
:1003D000F094F7F8F09402C0C0E0D0E000E060E0F4
:1003E00070E080E09FE3101741F020E030E040E251
:1003F00051E40E94C8180F5FF6CFA70196010E9432
:1004000057186B017C010E9441194B015C012AE0E5
:10041000AB01BC0184E493E00E94B907C80FD91F67
:100420001123C9F1C501B4010E9470199B01AC01EF
:10043000C701B6010E9456186B017C016EE284E48C
:1004400093E00E94FA06C80FD91F20E030E040E296
:1004500051E4C701B6010E94271A4B015C010E94BA
:1004600041196B01E12CF12C2AE0B701A60184E4CB
:1004700093E00E94B907C80FD91FC701B6010E94B7
:1004800070199B01AC01C501B4010E9456186B01A3
:100490007C011150D1F6CE01DF91CF911F910F91C8
:1004A000FF90EF90DF90CF90BF90AF909F908F9094
:1004B0000895CF93DF9342E00E947F01EC016AEE42
:1004C00071E084E493E00E94A4078C0F9D1FDF91EC
:1004D000CF9108958091E7029091E802892B79F4F9
:1004E00084E090E00E94991A22E631E0FC01318319
:1004F0002083138212829093E8028093E702809116
:10050000E7029091E8020895CF93DF93EC018AE52A
:1005100091E0998388830E946A02DC011296ED9132
:10052000FC911397CE17DF0769F4288D398D139648
:100530003C932E9312970DC0808D918DC817D907CB
:1005400021F0FC013097C1F704C0888D998D918FFF
:10055000808FDF91CF910895CF93DF93EC010E94BC
:100560008402CE01DF91CF910C94311B90E0FC010D
:10057000EE57FF4F2491FC01EC52FF4F3491FC01E8
:10058000E054FF4FE491EE2309F43CC0222339F1FB
:10059000233091F038F42130A9F0223001F584B5F0
:1005A0008F7D12C0273091F02830A1F02430B9F4AB
:1005B000809180008F7D03C0809180008F77809331
:1005C00080000DC084B58F7784BD09C08091B000D4
:1005D0008F7703C08091B0008F7D8093B000F0E0F2
:1005E000EE0FFF1FE858FF4FA591B4919FB7F89405
:1005F000611104C08C913095382302C0EC913E2BE0
:100600003C939FBF0895CF93DF93EC0160E08E8110
:100610000E94B60261E08E810E94B60260E08E8187
:100620000E94B6028BE891E00197F1F7DF91CF913C
:100630000895CF92DF92EF92FF920F931F93CF9383
:10064000DF936C017C0187E0E80EF11CC0E0D0E094
:10065000062F10E0B8010C2E02C0759567950A941C
:10066000E2F76170F70181917F010E94B602219645
:10067000C430D10579F7C601DF91CF911F910F9159
:10068000FF90EF90DF90CF900C940303CF92DF9216
:10069000EF92FF920F931F93CF93DF93EC01F62E0F
:1006A000642F8C810E94B6028D818F3F19F060E02B
:1006B0000E94B6028F850F2D10E084FF25C06E01C9
:1006C00087E0C80ED11CE12CF12CB8010E2C02C021
:1006D000759567950A94E2F76170F60181916F0153
:1006E0000E94B602FFEFEF1AFF0A88E0E816F10455
:1006F00061F7CE01DF91CF911F910F91FF90EF90A5
:10070000DF90CF900C940303B80184E07595679552
:100710008A95E1F7CE010E9419036F2DCE01DF917A
:10072000CF911F910F91FF90EF90DF90CF900C949D
:10073000190341E00E94460381E090E0089540E003
:100740000C94460310920F0381E080930E031092E5
:10075000E90261E082E10E94B60261E083E10E9469
:10076000B602E9EBF0E080818E7F808380818D7F0F
:10077000808388E48093B80085E48093BC0008956A
:100780001F93CF93DF93FC01C685D785209709F48B
:1007900008C162E370E080E090E00E94BB0E10921E
:1007A000A2021092A10210921603109237030E9427
:1007B000A20384EA90E09093A00280939F0285EACE
:1007C00090E090939E0280939D029E858985806231
:1007D000913041F50E94B20C80E00E945C088FE1EC
:1007E0000E945C080E94C60B882321F08B85823012
:1007F00009F453C0898580620E94B20C8CE00E948B
:100800005C088FE10E945C080E94C60B882321F0DF
:100810008B85823009F441C0898580620E94B20CC8
:1008200081E02FC00E94B20C80E00E945C088FEF34
:100830000E945C0880E00E945C0880E00E945C08E6
:1008400080E00E945C0880E00E945C0880E00E94DA
:100850005C0880E00E945C0880E00E945C0880E008
:100860000E945C0880E00E945C080E94C60B8823FE
:1008700019F08B85823089F0898580620E94B20CE4
:1008800080E00E945C0880E00E945C080E94C60B29
:10089000882329F08B85823011F41B868DC08B85CF
:1008A000823011F481E08B878C8188608C8382E0B8
:1008B0008F8318868E858130B1F41D861C8613E0E7
:1008C00068E3CE010E94CF0C68E1CE010E94CF0CFC
:1008D0001150B1F768E2CE010E94CF0C68E0CE0162
:1008E0000E94CF0C20C06CE9CE010E94BC0C68E9CC
:1008F000CE010E94BC0C6CE9CE010E94BC0C68E9E0
:10090000CE010E94BC0C6CE9CE010E94BC0C68E9CF
:10091000CE010E94BC0C64E9CE010E94BC0C60E9CF
:10092000CE010E94BC0C65E070E080E090E00E9487
:10093000BB0E6C81606240E0CE010E94E20C65E07B
:1009400070E080E090E00E94BB0E6C81606240E04D
:10095000CE010E94E20C65E070E080E090E00E9431
:10096000BB0E8CE08D838B85882329F040E06CE002
:10097000CE010E94E20C8B85882349F040E061E0C3
:10098000CE010E94E20C8BE39FE10197F1F782E038
:100990008E8340E066E0CE01DF91CF911F910C94F1
:1009A000E20CFC0180899189009731F062E0DF91CF
:1009B000CF911F910C94B70DDF91CF911F910895A6
:1009C000CF93DF9391E09093A3028823B9F0C09175
:1009D000B800D091BA008091BC008A7B8093BC00A3
:1009E00060E082E10E94B60260E083E10E94B6020C
:1009F0000E94A203D093BA00C093B800DF91CF91B8
:100A0000089585ED8093BC008091110390911203AD
:100A1000A0911303B09114030796A11DB11D23E00B
:100A2000B695A795979587952A95D1F72091BC0003
:100A300024FF1CC0409111035091120360911303D5
:100A400070911403452B462B472B81F30097A1058A
:100A5000B10541F025E32A95F1F700000197A109BE
:100A6000B109E4CF809110030C94E00410920F03BD
:100A700008951F920F920FB60F9211242F933F9358
:100A80004F935F936F937F938F939F93AF93BF9396
:100A9000EF93FF938091B900887F803609F49CC062
:100AA00068F5883209F45BC090F4803109F454C0D1
:100AB00038F4882309F4F6C0883009F44DC0F6C034
:100AC000883109F44CC0803209F45DC0EFC0803435
:100AD00009F468C048F4803309F455C0883309F03C
:100AE000E5C080930D03D8C0803509F44FC0883528
:100AF00009F45DC0883409F0D9C0D6C0883909F43A
:100B0000C7C0A8F4883709F467C038F4883609F4F8
:100B100063C0803709F460C0C9C0883809F4B8C020
:100B2000803909F45FC0803809F0C0C05BC0803BE9
:100B300009F486C038F4803A09F466C0883A09F4AA
:100B40007FC0B4C0803C09F4A7C0883C09F4A4C0AD
:100B5000883B09F48AC0AAC08091EA0210C0909133
:100B60000C0380910B03981770F5E0910C0381E062
:100B70008E0F80930C03F0E0E551FD4F8081809350
:100B8000BB0085EC86C080930D038EC0E0910C0302
:100B900081E08E0F80930C038091BB00F0E0E55163
:100BA000FD4F808390910C0380910B036EC0E09108
:100BB0000C0381E08E0F80930C038091BB00F0E06A
:100BC000E551FD4F808380910E0381116DC081E05E
:100BD0008093E90284EA61C083E080930F0310925E
:100BE000E602CFCF8091E602803208F051C0E0915A
:100BF000E60281E08E0F8093E6028091BB00F0E078
:100C0000EA53FD4F8083BDCF85EC8093BC001092EA
:100C10000F038091E602803230F4E091E602F0E0CA
:100C2000EA53FD4F10826091E60270E0E0919D0270
:100C3000F0919E0286EC92E009951092E60236C091
:100C400084E080930F031092C5021092C402E091D9
:100C50009F02F091A00209958091C402811105C004
:100C600081E08093C4021092A402E091C50281E069
:100C70008E0F8093C502F0E0EC55FD4F808180938C
:100C8000BB009091C5028091C402981708F479CFF7
:100C900085E88093BC000AC085EC8093BC0010926C
:100CA0000F0304C010920D030E940105FF91EF9104
:100CB000BF91AF919F918F917F916F915F914F9174
:100CC0003F912F910F900FBE0F901F901895CF92CC
:100CD000DF92EF92FF920F931F93CF93DF936C01FC
:100CE0007A018B01C0E0D0E0CE15DF0581F0D8019C
:100CF0006D918D01D601ED91FC910190F081E02D77
:100D0000C6010995892B11F02196EECF7E01C7010E
:100D1000DF91CF911F910F91FF90EF90DF90CF90D7
:100D20000895FC01538D448D252F30E0842F90E0F1
:100D3000821B930B541710F0CF96089501970895D6
:100D4000FC01918D828D981761F0828DDF01A80FD3
:100D5000B11D5D968C91928D9F5F9F73928F90E0F5
:100D600008958FEF9FEF0895FC01918D828D981764
:100D700031F0828DE80FF11D858D90E008958FEFA1
:100D80009FEF0895FC01918D228D892F90E0805C6A
:100D90009F4F821B91098F739927089584E493E0F4
:100DA0000E94C20621E0892B09F420E0822F0895D9
:100DB000FC01848DDF01A80FB11DA35ABF4F2C91F8
:100DC000848D90E001968F739927848FA689B789C7
:100DD0002C93A089B1898C91837080648C93938DBE
:100DE000848D981306C00288F389E02D80818F7D61
:100DF00080830895EF92FF920F931F93CF93DF9319
:100E0000EC0181E0888F9B8D8C8D981305C0E8895B
:100E1000F989808185FD26C0F62E0B8D10E00F5FCD
:100E20001F4F0F731127E02E8C8DE8120CC00FB6E8
:100E300007FCFACFE889F989808185FFF5CFCE01DB
:100E40000E94D806F1CF8B8DFE01E80FF11DE35A09
:100E5000FF4FF0829FB7F8940B8FEA89FB8980815E
:100E600080620AC09FB7F894EE89FF896083E889A1
:100E7000F98980818370806480839FBF81E090E0E6
:100E8000DF91CF911F910F91FF90EF900895CF9335
:100E9000DF93EC01888D8823C9F0EA89FB89808182
:100EA00085FD05C0A889B9898C9186FD0FC00FB654
:100EB00007FCF5CF808185FFF2CFA889B9898C9195
:100EC00085FFEDCFCE010E94D806E7CFDF91CF910D
:100ED000089580E090E0892B29F00E94CE068111D0
:100EE0000C9400000895FC01A685B785109741F089
:100EF000ED91FC9111970190F081E02DCD010AC098
:100F000080899189009739F0DC01ED91FC91019085
:100F1000F081E02D099480E090E00895089580E04C
:100F200090E008950E94BA1BFC012385222319F04A
:100F300041E00E94E20C81E090E008950C94311BA6
:100F40000C94311B0C94311B6115710579F0FB0178
:100F500001900020E9F73197AF01461B570BDC01E8
:100F6000ED91FC910280F381E02D099480E090E006
:100F700008958F929F92AF92BF92EF92FF920F933C
:100F80001F93CF93DF93CDB7DEB7A1970FB6F89439
:100F9000DEBF0FBECDBF7C01FA01CB0119A222300A
:100FA00008F42AE08E010F5D1F4F822E912CA12C98
:100FB000B12CBF01A50194010E941A18F901CA01C0
:100FC000015011096A3014F4605D01C0695CD801F8
:100FD0006C93232B242B252B61F7B801C7010E94AA
:100FE000A407A1960FB6F894DEBF0FBECDBFDF9168
:100FF000CF911F910F91FF90EF90BF90AF909F9076
:101000008F9008950C94A4071F920F920FB60F9221
:1010100011242F933F934F935F936F937F938F93FD
:101020009F93AF93BF93EF93FF9384E493E00E9469
:10103000D806FF91EF91BF91AF919F918F917F91D2
:101040006F915F914F913F912F910F900FBE0F9035
:101050001F9018951F920F920FB60F9211242F9385
:101060008F939F93EF93FF93E0915403F091550377
:101070008081E0915A03F0915B0382FD12C0908160
:1010800080915D038F5F8F7320915E03821751F013
:10109000E0915D03F0E0EC5BFC4F958F80935D0386
:1010A00001C08081FF91EF919F918F912F910F90BF
:1010B0000FBE0F901F901895682F88E393E00C9453
:1010C00040014F925F926F927F928F929F92AF9268
:1010D000BF92EF92FF920F931F93CF93DF93DC01A8
:1010E0001296ED90FC901397E114F10409F455C1A8
:1010F000F701068517850115110509F4F8C0D80117
:101100001B968C91811103C0C0E0D0E01EC1F80194
:10111000818580620E94B20C82E10E945C080E947C
:10112000C60BD80119960C910E94960E4B015C01DA
:1011300010910F03112339F1809111039091120343
:10114000A0911303B0911403892B8A2B8B2B81F36D
:101150000E94960E4090110350901203609013036A
:1011600070901403DC01CB0188199909AA09BB0905
:10117000481659066A067B06D8F6809110030E942D
:10118000E00410E08EC081E080930F0380930E0393
:101190009FEF90930D0310920C0310920B0380931A
:1011A000EA028091EA020062000F082B0093EA0233
:1011B0008091E902813089F51092E9020E94960E31
:1011C0004B015C018091EA028093BB008091110386
:1011D00090911203A0911303B0911403892B8A2BD1
:1011E0008B2BA9F00E94960E409011035090120391
:1011F0006090130370901403DC01CB0188199909E6
:10120000AA09BB09481659066A067B0690F1809127
:10121000BC0083FDD7CF85EC01C085EE8093BC0078
:101220000E94960E4B015C0180910F03813031F5D5
:101230008091110390911203A0911303B0911403B4
:10124000892B8A2B8B2B81F30E94960E40901103E1
:10125000509012036090130370901403DC01CB01D3
:1012600088199909AA09BB09481659066A067B0616
:10127000D8F6809110030E94E00413C080910C0303
:10128000811103C080910C0301C081E0EBEEF2E01C
:10129000ABE7B2E010E0181721F091919D931F5F2A
:1012A000FACF1092A2021093A10288E393E00E9469
:1012B000F7008095982F9F7109F426CF81FF03C016
:1012C000C5E0D0E042C083FF03C0C3E0D0E03DC032
:1012D00082FF03C0C4E0D0E038C084FF03C0C2E096
:1012E000D0E033C08170C82FB0E0DB2F2EC0F701F3
:1012F00080899189892B09F407CF80E480937C0051
:1013000080917A00806480937A0080917A0086FDD3
:10131000FCCF809178002091790090E0922B81346D
:10132000910574F28D3D910584F28B38F1E09F07B1
:101330008CF28A3522E0920794F231E020E089367F
:1013400093400CF030E0C32FD22FD70118968D9127
:101350009C9119978C179D0701F11996DC93CE93F8
:1013600018971C968D919C911D970097B1F0DC0108
:10137000ED91FC910190F081E02DBE01DF91CF91C4
:101380001F910F91FF90EF90BF90AF909F908F9023
:101390007F906F905F904F900994DF91CF911F9154
:1013A0000F91FF90EF90BF90AF909F908F907F90A4
:1013B0006F905F904F9008950895CF93DF93EC0165
:1013C000EE85FF85309709F449C08385882309F4A9
:1013D00065C09E818285882311F087E098278685E5
:1013E000813059F590FD03C020EC31E002C020E8C7
:1013F00031E03587248791FF05C0248535852F7717
:101400003587248792FF05C0848595859E7F9587C3
:101410008487D485C585818580620E94B20C82E173
:101420000E945C088D2F0E945C088C2F0E945C0833
:101430000E94C60B8111FCCF31C08581992311F028
:10144000886001C0877F85838581682F687083FDF0
:1014500060E8CF01DF91CF910C94BC0C8889998909
:10146000892BE1F08E819F81892B41F069EF71E03A
:1014700084E493E00E94B20B60E007C06CE272E08B
:1014800084E493E00E94B20B61E08C810E945A0ECA
:1014900060E08C81DF91CF910C94B602DF91CF9107
:1014A0000895CF93DF93FC0122813381211531050B
:1014B000D1F16330710519F494819F5F05C06430E8
:1014C000710561F494819150992321F0963018F0C0
:1014D00095E001C091E09483968305C06130710569
:1014E00011F481E08583EF0161E0C9010E945D0D87
:1014F0004C8150E060E070E02AE08A819B810E948C
:10150000B9076FE572E08A819B810E9402088A8197
:101510009B812C81277030E0FC0137832683DF918B
:10152000CF910C94DD09DF91CF910895CF93DF9394
:10153000EC0180E391E099838883888999890E94EE
:10154000311B198A188A8E859F85009739F0DC0136
:10155000ED91FC910284F385E02D09951F861E868E
:10156000EA85FB8586899789009739F0DC01ED9142
:10157000FC910480F581E02D09958A859B85FC010D
:10158000178A168A009749F00190F081E02D0280B9
:10159000F381E02DDF91CF910994DF91CF910895F0
:1015A000CF93DF93EC010E94960ACE01DF91CF9199
:1015B0000C94311B0895DC0180E0615098F02D916E
:1015C000982F9227E92FEF70F0E0EA56FF4F249111
:1015D00092959F70E92FF0E0EA55FF4FE491822F3A
:1015E0008E27EBCF0895FC0190810180F281E02DE0
:1015F000F8948181892B81832281892F80952823EA
:101600002283A7E0B0E01197F1F721818223818343
:10161000A3E2B0E01197F1F780817894EFECF0E06D
:101620003197F1F7982381E009F480E00895FC01F7
:1016300090810180F281E02D892F809560FF12C09A
:10164000F8942281822382838181892B8183A3E282
:10165000B0E01197F1F78281982B9283789487ED0F
:1016600090E011C0F8942281822382838181892BAA
:101670008183AFEFB0E01197F1F78281982B9283CD
:1016800078948FE090E00197F1F70895DF92EF9260
:10169000FF920F931F93CF93DF93EC01D62EE42E8E
:1016A00008E010E0FF24F39461E08D2D8F2109F410
:1016B00060E0CE010E94170BFF0C01501109A1F749
:1016C000E11010C0F894E981FA81918188818095B8
:1016D00089238183E981FA81928188818095892398
:1016E00082837894DF91CF911F910F91FF90EF90BB
:1016F000DF900895DC012C911196ED91FC911297E9
:10170000F8948181922F90958923818378948DE735
:1017100043E050E0815021F1DA011197F1F7308177
:101720003223C1F3F8948281892382838181822BC1
:1017300081837894ABE7B7E01197F1F7F894818152
:101740009823918383E191E00197F1F78081282329
:1017500081E009F080E07894E3E6F6E03197F1F774
:10176000089508950F931F93CF93DF93EC010E9488
:10177000A4078C016AEE71E0CE010E94A407800FDD
:10178000911FDF91CF911F910F9108958F929F929A
:10179000AF92BF92CF92DF92EF92FF920F931F937F
:1017A000CF93DF9310913703113208F0C2C0D0916C
:1017B00041040E94960E6B017C01C0910F03CC2363
:1017C00011F18091110390911203A0911303B09134
:1017D0001403892B8A2B8B2B81F30E94960E809009
:1017E000110390901203A0901303B0901403DC0136
:1017F000CB018C199D09AE09BF0988169906AA0666
:10180000BB06D8F682C082E080930F0381E080930C
:101810000E038FEF80930D0310920C0310930B03B4
:10182000A7E1B3E0EBEEF2E080E0181721F09D9124
:1018300091938F5FFACF1092EA029091EA028D2F76
:10184000880F892B8093EA028091E902813089F523
:101850001092E9020E94960E6B017C018091EA02CF
:101860008093BB008091110390911203A091130308
:10187000B0911403892B8A2B8B2BA9F00E94960E12
:10188000009111031091120320911303309114035E
:10189000DC01CB018C199D09AE09BF090817190796
:1018A0002A073B0790F18091BC0083FDD7CF85ECE0
:1018B00001C085EE8093BC000E94960E6B017C01F6
:1018C00080910F03823039F58091110390911203BA
:1018D000A0911303B0911403892B8A2B8B2B81F3D6
:1018E0000E94960E00911103109112032091130390
:1018F00030911403DC01CB018C199D09AE09BF099D
:10190000081719072A073B07D8F6809110030E9491
:10191000E004C5E013C080910D038F3F79F0809102
:101920000D03803241F080910D03803331F0C4E02B
:1019300005C0C1E003C0C2E001C0C3E010921603BD
:1019400010923703109215038C2FDF91CF911F91C6
:101950000F91FF90EF90DF90CF90BF90AF909F904E
:101960008F90089591E09093150380934104109215
:101970001603109237030895CF93C62FFC0181857B
:1019800080620E94B20C89E00E945C088C2F0E9449
:101990005C080E94C60B8111FCCFCF910895CF93B4
:1019A000C62FFC01818580620E94B20C83E10E94F7
:1019B0005C088C2F0E945C080E94C60B8111FCCF32
:1019C000CF910895FF920F931F93CF93DF938C01D4
:1019D000C62FF42EFC0186858130B1F56585C4FDE6
:1019E0006061C5FD6860C6FD6460C7FD6260D62F9A
:1019F000FF2011F0D06A01C0D0626D2FC8010E9493
:101A0000CF0C6D2F6F7DC8010E94CF0CF80165854A
:101A1000C0FD6061C1FD6860C2FD6460C3FD6260BD
:101A2000C62FFF2011F0C06A01C0C0626C2FC80130
:101A30000E94CF0C6C2F6F7DC801DF91CF911F9159
:101A40000F91FF900C94CF0C607F70E075956795B7
:101A5000442311F0666001C06460F801858183FD54
:101A600002C0D0E001C0D0E8D62B6D2FC8010E9483
:101A7000BC0C6D2F6B7FC8010E94BC0CCF70CC0FCB
:101A8000CC0FCC0FFF2011F0C66001C0C460F8017C
:101A9000858183FD02C060E001C060E8C62B6C2F29
:101AA000C8010E94BC0C6C2F6B7FC801DF91CF91E5
:101AB0001F910F91FF900C94BC0CCF93DF93CDB787
:101AC000DEB728970FB6F894DEBF0FBECDBFFC017E
:101AD00086859785009731F1FC0123852223F1F15A
:101AE00028E0E8E7F1E0DE01119601900D922A95D9
:101AF000E1F7FC012781261710F46FEF620FFE015A
:101B00003196E60FF11DE60FF11D6081606840E03F
:101B100028960FB6F894DEBF0FBECDBFDF91CF91F0
:101B20000C94E20C808991890097C1F0643008F030
:101B300063E0FC012389621710F06FEF620FFC0174
:101B4000E60FF11D6489606828960FB6F894DEBF31
:101B50000FBECDBFDF91CF910C949F0328960FB697
:101B6000F894DEBF0FBECDBFDF91CF910895EF9205
:101B7000FF920F931F93CF93DF93EC01623018F025
:101B80008F8588608F876B8B1C8A80E48D8B80E1CA
:101B90008E8B80E58F8B61E08C810E945A0E8D8147
:101BA0008F3F19F061E00E945A0E61E08E810E9421
:101BB0005A0E7E0187E0E80EF11C00E010E08F85F0
:101BC00084FD03C084E090E002C088E090E0081744
:101BD00019074CF461E0F70181917F010E945A0ED0
:101BE0000F5F1F4FECCF8BE39DE00197F1F760E0B3
:101BF0008C810E94B60260E08E810E94B6028D81C7
:101C00008F3F19F060E00E94B6026F8564FD1DC031
:101C100063E0CE010E9419030BE416E4C8010197AA
:101C2000F1F763E0CE010E941903C8010197F1F7B3
:101C300063E0CE010E94190383E592E00197F1F77A
:101C400062E0CE010E94190316C06062CE010E94BC
:101C50009F038BE496E40197F1F76F856062CE01F4
:101C60000E949F0383E592E00197F1F76F85606220
:101C7000CE010E949F036F856062CE010E949F0388
:101C800084E0888B6CE0CE010E949F0361E0CE016E
:101C90000E949F038BE39FE10197F1F782E0898B1C
:101CA00066E0CE01DF91CF911F910F91FF90EF90F1
:101CB0000C949F03CF93DF9390E0FC01EC52FF4F15
:101CC0002491FC01E054FF4F8491882361F190E05E
:101CD000880F991FFC01E851FF4FC591D491FC0179
:101CE000E858FF4FA591B491611109C09FB7F894CE
:101CF0008881209582238883EC912E230BC062304B
:101D000061F49FB7F8948881322F309583238883BC
:101D1000EC912E2B2C939FBF06C08FB7F894E881CF
:101D20002E2B28838FBFDF91CF9108953FB7F89472
:101D30008091550490915604A0915704B091580495
:101D400026B5A89B05C02F3F19F00196A11DB11D16
:101D50003FBFBA2FA92F982F8827820F911DA11D51
:101D6000B11DBC01CD0142E0660F771F881F991F8E
:101D70004A95D1F708958F929F92AF92BF92CF92DA
:101D8000DF92EF92FF926B017C010E94960E4B0155
:101D90005C01C114D104E104F104F1F00E94960E3B
:101DA000DC01CB0188199909AA09BB09883E934037
:101DB000A105B10570F321E0C21AD108E108F108CC
:101DC00088EE880E83E0981EA11CB11CC114D104BA
:101DD000E104F10419F7DDCFFF90EF90DF90CF9091
:101DE000BF90AF909F908F9008952FB7F894609117
:101DF00051047091520480915304909154042FBF68
:101E000008951F920F920FB60F9211242F933F93B4
:101E10008F939F93AF93BF938091510490915204FD
:101E2000A0915304B09154043091500423E0230F47
:101E30002D3720F40196A11DB11D05C026E8230F02
:101E40000296A11DB11D20935004809351049093DC
:101E50005204A0935304B09354048091550490917C
:101E60005604A0915704B09158040196A11DB11DCC
:101E70008093550490935604A0935704B09358044C
:101E8000BF91AF919F918F913F912F910F900FBE76
:101E90000F901F901895CF93DF93CDB7DEB76D9756
:101EA0000FB6F894DEBF0FBECDBF789484B58260C4
:101EB00084BD84B5816084BD85B5826085BD85B5EE
:101EC000816085BD80916E00816080936E0010926C
:101ED00081008091810082608093810080918100E7
:101EE0008160809381008091800081608093800078
:101EF0008091B10084608093B1008091B0008160D6
:101F00008093B00080917A00846080937A00809101
:101F10007A00826080937A0080917A008160809359
:101F20007A0080917A00806880937A001092C100D4
:101F300082E190E00E94991A8C01DC0113961C92B8
:101F40001E92129780E391E011969C938E938AE003
:101F500090E015969C938E93149717961C921E9260
:101F6000169719961C921E92189784E090E00E9492
:101F7000991A6C0186E291E0F601918380831383C4
:101F800002838AE190E00E94991A7C018AE591E03F
:101F9000D70111969C938E9312961C92129781E012
:101FA00013968C93139714961C92149715961C9263
:101FB0001597F70116821782108611861A961D92C0
:101FC0001D921D921C921D978FEF9FEFDC0186875B
:101FD0009787A08BB18B82E390E0A0E0B0E0828B8A
:101FE000938BA48BB58BD78AC68A118E108E0E94D4
:101FF0006A02DC011296ED91FC911397309729F457
:102000001396FC92EE92129708C0808D918D0097E6
:1020100011F0FC01FACFF18EE08E81E0F7018283AE
:102020008091700290917102892BD9F482E090E046
:102030000E94991A6C018AE691E0D6018D939C93D7
:1020400082E090E00E94991A22E731E0FC0131839E
:10205000208390939C0280939B02D0927102C09245
:10206000700280919B0290919C02009751F0DC01DC
:10207000ED91FC910190F081E02D0995AB01BC013F
:1020800003C040E050E0BA01F70146835783608700
:1020900071874A015B0180949094A094B0948289E6
:1020A0009389A489B58921E088169906AA06BB06FA
:1020B00008F020E0F701258388169906AA06BB06DA
:1020C00040F40197A109B10988199909AA09BB0926
:1020D00005C0840F951FA61FB71FF701828793873E
:1020E000A487B587D7011E964D935D936D937C931E
:1020F0005197F801F386E2861586148617861686B0
:10210000118A108A1092A2021092A1021092160354
:10211000109237030E94A20384EA90E09093A002F9
:1021200080939F0285EA90E090939E0280939D02A7
:1021300080E20E94B20C0E94C60B811136C08FE073
:1021400090E00E94991AFC011382128286E191E0CC
:102150009183808382E08387128680E28187148264
:102160001686D8011F96FC93EE931E97309711F0B8
:1021700081E08687C8010E94C003F80186859785A3
:10218000DC011B962C911B9721110CC0009731F09C
:10219000ED91FC910284F385E02D0995F8011786F5
:1021A000168603C0C8010E94DD09D8011E968D91D4
:1021B0009C911F97892BB1F588E190E00E94991AB4
:1021C0007C01FC01138212828AE091E0918380837A
:1021D00088E084838FEF858389E0868384E087832A
:1021E00085E0808786E0818787E082871386148672
:1021F00015861686178661E0C7010E94B70DD801C3
:102200005196FC92EE925097C8010E94DD0960E061
:102210008EE00E945A0E60E08EE00E94B602C80175
:102220000E94C003109373020093720287E090E053
:102230000E94991AFC0180E491E0918380831383CA
:10224000028314821582F0937A02E0937902D80116
:102250001D96FC93EE931C9760E0C8010E945D0DF3
:1022600060EB71E0C8010E94020861E083E00E9417
:102270005A0EE0915403F091550382E08083E0917F
:102280005003F09151031082E0915203F0915303F7
:102290008FEC808310925C03E0915803F091590316
:1022A00086E08083E0915603F0915703808180613E
:1022B0008083E0915603F09157038081886080838A
:1022C000E0915603F0915703808180688083E0910C
:1022D0005603F091570380818F7D808369EB71E015
:1022E00084E493E00E94B20B0E94F50E60937502A5
:1022F00070937602809377029093780280E090E06A
:10230000A0E2B2E48093E1039093E203A093E3039D
:10231000B093E40310922304109224041092250435
:1023200010922604812C912CBAE7AB2EB4E4BB2E7C
:102330008092270490922804A0922904B0922A0443
:1023400080912B0400910B0410910C04882309F454
:1023500053C0F801C080D180E280F380A5019401D0
:10236000C701B6010E94221A18163CF4D8018D92BA
:102370009D92AD92BC9213970EC020E030E0A9016F
:10238000C701B6010E94C31887FF05C0F80110827B
:102390001182128213828090130490901404A090F2
:1023A0001504B0901604C0902704D0902804E09043
:1023B0002904F0902A04A7019601C501B4010E94E6
:1023C000221A181684F0C0902304D0902404E090C0
:1023D0002504F0902604A7019601C501B4010E94CE
:1023E000C31887FF8CC4C0921304D0921404E092E7
:1023F0001504F092160483C460911F0470912004A8
:1024000080912104909122040E9470199B01AC01DB
:1024100060E070E48CE995E40E94C8186B017C01CF
:102420009B01AC016091FD037091FE038091FF035D
:10243000909100040E94271A6093FD037093FE039D
:102440008093FF0390930004A7019601609101041B
:102450007091020480910304909104040E94C818B2
:102460006093010470930204809303049093040426
:1024700088E893E1A0E0B0E080931F0490932004EB
:10248000A0932104B0932204D801CD90DD90ED906B
:10249000FC90C0921304D0921404E0921504F092C0
:1024A0001604E0910904F0910A0480819181A281CF
:1024B000B3818093170490931804A0931904B093E8
:1024C0001A0410921B0410921C0410921D04109206
:1024D0001E0420E030E04AE754E4C701B6010E9440
:1024E000221A18164CF48092130490921404A092AD
:1024F0001504B092160411C020E030E0A901C70114
:10250000B6010E94C31887FF08C0109213041092EE
:102510001404109215041092160481E080932B0489
:1025200001E01E01F2E12F0E311CE0917902F091E1
:102530007A028581811101C0FFCF268148E0249F66
:102540009001112480E090E0FC01E20FF31FE859B4
:10255000FF4F45915491029688309105A9F78091DB
:102560003304909134040E947A0B40E06CEC80912B
:102570003304909134040E94460B40912D0464E48E
:1025800080913304909134040E94460B80912F0473
:102590008823E9F1E0912E04E950E33040F4F0E0C3
:1025A000EE0FFF1FEA5BFE4FC080D18004C0EEEE4D
:1025B000CE2EE2E0DE2E80913004882311F180914E
:1025C0002D0481111EC00E94F50E4B015C010D2CE3
:1025D000000CEE08FF0880913304909134040E94AF
:1025E000F30A8130A1F00E94F50EDC01CB018C19B9
:1025F0009D09AE09BF0988159905AA05BB0558F3C1
:1026000006C0B601DD0C880B990B0E94BB0EE09052
:102610003304F0903404D7011B961C921B971D962F
:102620001C921D971C961C925701BBE0AB0EB11C6F
:102630006701E3E0CE0ED11CF5011292CE16DF0643
:10264000E1F7C7010E947A0B882309F456C040E0E5
:1026500060EFC7010E94460B99249394712C612C62
:1026600011E0C7010E94F30A882EC7010E94F30AF5
:10267000B1E08B1203C08130C1F437C0272D30E0A8
:1026800088121DC0F7018385181730F4E20FF31F7D
:102690008381892151F402C0811739F0812C1930CE
:1026A00068F4D7011C961C9309C0F701E70DF11DD2
:1026B0008381892983838824839409C0612EF7014B
:1026C000E20FF31F9381892D809589238383682DE1
:1026D000C7010E94170B1F5F990C19F4739499247A
:1026E0009394B7E0B71508F0BCCF113430F0F70180
:1026F000638661100CC005870AC0D7011B961C9227
:102700001B971D961C921D971C961C9219C0F701D1
:102710008381882391F37E01FAE0EF0EF11CF7012B
:102720004701D6018D916D018193AA15BB05C9F7AB
:1027300067E0C7010E94DB0A9989891709F448C23A
:1027400060E070E08EEF92EC6093E9037093EA032F
:102750008093EB039093EC0380912B04882309F47E
:102760009EC10E94F50E6E8B7F8B888F998F809112
:102770000F0490911004A0911104B09112044E899D
:102780005F89688D798D481B590B6A0B7B0B809193
:102790001F0490912004A0912104B09122044817B5
:1027A00059076A077B0708F47AC1E0910904F091A0
:1027B0000A0480819181A281B3818A8B9B8BAC8B2F
:1027C000BD8BE0910D04F0910E049C01AD01608180
:1027D0007181828193810E9456182B013C012091C6
:1027E0001704309118044091190450911A046A8911
:1027F0007B898C899D890E9456186B017C012091F0
:102800001B0430911C0440911D0450911E04C3010F
:10281000B2010E94271A20E030E0A9010E94C318EB
:1028200018167CF0109213041092140410921504E0
:10283000109216046FEB71E084E493E00E94B20BF7
:102840002AC02AE939E949E75FE3609113047091EE
:10285000140480911504909116040E94271A4B01CC
:102860005C012091FD033091FE034091FF035091E4
:102870000004C301B2010E94271A9B01AC01C501EB
:10288000B4010E945718609313047093140480934A
:1028900015049093160410912C04111120C020915E
:1028A000F9033091FA034091FB035091FC03C701F7
:1028B000B6010E94271A9B01AC016091130470912C
:1028C000140480911504909116040E945618609388
:1028D000130470931404809315049093160480914C
:1028E000130490911404A0911504B09116048A8FDA
:1028F0009B8FAC8FBD8F8090270490902804A09070
:102900002904B0902A04A5019401BC01CD010E94C4
:10291000221A181694F08090230490902404A0901A
:102920002504B0902604A50194016A8D7B8D8C8DC1
:102930009D8D0E94C31887FF08C080921304909257
:102940001404A0921504B0921604112379F020917A
:10295000F9033091FA034091FB035091FC03C3014A
:10296000B2010E94271A4B015C0103C0812C912CFB
:1029700054016BEC71E084E493E00E940208C5010D
:10298000B4010E94590261ED71E084E493E00E9479
:1029900002086091130470911404809115049091C1
:1029A00016040E94590267ED71E084E493E00E94EE
:1029B00002082091010430910204409103045091D7
:1029C0000404C701B6010E94271A0E9459022091EF
:1029D0000104309102044091030450910404C701A2
:1029E000B6010E94271A9B01AC01609113047091FB
:1029F000140480911504909116040E945618A501A4
:102A000094010E9457184B015C01C0902704D0909C
:102A10002804E0902904F0902A049601A7010E945E
:102A2000221A181694F0C0902304D0902404E09049
:102A30002504F09026049601A701B401C5010E9467
:102A4000C31887FD02C064017501E0910B04F09189
:102A50000C04C601D70180839183A283B3838A8942
:102A60009B89AC89BD898093170490931804A09327
:102A70001904B0931A0440921B0450921C046092F3
:102A80001D0470921E048E899F89A88DB98D809334
:102A90000F0490931004A0931104B09312040E94A9
:102AA000F50EC0907502D0907602E0907702F0901B
:102AB0007802AB01BC014C195D096E097F09493EE2
:102AC00053406105710508F45EC0D701C601885105
:102AD0009C4FAF4FBF4F8093750290937602A093A7
:102AE0007702B093780220E030E04AE754E4609146
:102AF000E5037091E6038091E7039091E8030E945B
:102B0000C81820E030E048EC52E40E94271A0E94E6
:102B10003A19609374026DED71E084E493E00E94D1
:102B200002086091E9037091EA038091EB039091B0
:102B3000EC0342E00E947F0161EE71E084E493E0E7
:102B40000E9402086091E1037091E2038091E30327
:102B50009091E40342E00E947F0166EE71E084E41C
:102B600093E00E9402084091740250E060E070E03F
:102B70002AE084E493E00E94B9076AEE71E084E4FD
:102B800093E00E94A4070E94F50EC0907502D090B9
:102B90007602E0907702F09078026C197D098E0938
:102BA0009F090E9470192091E5033091E60340913E
:102BB000E7035091E8030E94221A181614F461E00A
:102BC00001C060E083E00E94B6020E946907ADCCBC
:102BD00080913304909134040E947A0B882309F485
:102BE0008BC0C0903304D090340440E065E5C6014A
:102BF0000E94460BF70161917F0140E0C6010E94EF
:102C0000460BE214F304B1F740E06EEB809133041D
:102C1000909134040E94460BAE014F5F5F4F7A01E2
:102C2000542E6F2CC0903304D090340478E0A72E3B
:102C3000B12C10E077247394C6010E94F30A81112D
:102C40001729770C51E0A51AB108B1F7D7011D93E8
:102C50007D018A169B0631F78091330490913404EC
:102C60000E947A0B813009F047C068E0852D962DCF
:102C70000E94DB0A998589133FC02A8130E0C9018F
:102C8000982F8827990F990F990F6981B8E06B9F4A
:102C9000B00111249C01262B372B8A858031C9F481
:102CA000688570E08F81FB01E81BF109CF019695E3
:102CB000982F8827979587950E940618605171096B
:102CC000207F53E0220F331F5A95E1F7620F731FE5
:102CD00001C0B9016138F4EE7F070CF431CD072E45
:102CE000000C880B990B0E94721920E030E040E044
:102CF0005CE30E94271A28CD60E874EEEBCF609168
:102D00001F047091200480912104909122040E945C
:102D100070199B01AC0160E070E48CE995E40E94BD
:102D2000C8186B017C019B01AC016091FD0370919F
:102D3000FE038091FF03909100040E94271A609384
:102D4000FD037093FE038093FF0390930004A7019B
:102D500096016091010470910204809103049091A6
:102D600004040E94C81860930104709302048093C5
:102D700003049093040488E893E1A0E0B0E080931A
:102D80001F0490932004A0932104B0932204C5CB88
:102D90000F931F9310923B0310923A0388EE93E037
:102DA000A0E0B0E080933C0390933D03A0933E03EA
:102DB000B0933F0324E831E0309339032093380384
:102DC000109247031092460380934803909349035F
:102DD000A0934A03B0934B0382EA91E0909345039A
:102DE0008093440385EC90E09093510380935003CB
:102DF00084EC90E0909353038093520380EC90E036
:102E0000909355038093540381EC90E09093570383
:102E10008093560382EC90E090935903809358037B
:102E200086EC90E090935B0380935A0310925D03CD
:102E300010925E0310925F031092600360E082E0E4
:102E40000E945A0EE6EDF0E0E491E0934204E2ECD9
:102E5000F0E0E491F0E0EE0FFF1FEA54FF4F8591A0
:102E60009491909344048093430410924D041092E3
:102E70004F0410924E04EDE4F4E085E494E01292E5
:102E80008E179F07E1F782E494E0909334048093D7
:102E90003304109231041092320410922D0489E010
:102EA00080932E0481E080932F048093300410924D
:102EB000400410923F0425EE33E030930C0420933D
:102EC0000B0429EE33E030930A042093090421EE29
:102ED00033E030930E0420930D0410922B041092D3
:102EE000230410922404109225041092260440E03A
:102EF00050E06FE773E440932704509328046093F5
:102F0000290470932A0444E650E060E070E04093A6
:102F10001F0450932004609321047093220421E045
:102F200030E0309306042093050430930804209386
:102F3000070480932C0480E090E0A6E9B3E480933A
:102F4000ED039093EE03A093EF03B093F00380E0C2
:102F500090E0A0EAB1E48093F1039093F203A09390
:102F6000F303B093F40380E090E0AAE7B5EC80931C
:102F7000F5039093F603A093F703B093F80380E072
:102F800090E0A6E9B3EC8093F9039093FA03A09341
:102F9000FB03B093FC0380E090E0A0E0B0EC8093F2
:102FA000FD039093FE03A093FF03B093000480E021
:102FB00090E4ACE1B7E48093010490930204A09301
:102FC0000304B09304040E94F50E00911F041091B5
:102FD00020042091210430912204DC01CB01801BCC
:102FE000910BA20BB30B80930F0490931004A0934A
:102FF0001104B093120410921B0410921C0410923E
:103000001D0410921E041F910F91089597FB072E27
:1030100016F4009407D077FD09D00E943C1807FCF5
:1030200005D03EF4909581959F4F089570956195D8
:103030007F4F0895A1E21A2EAA1BBB1BFD010DC0F4
:10304000AA1FBB1FEE1FFF1FA217B307E407F50758
:1030500020F0A21BB30BE40BF50B661F771F881F34
:10306000991F1A9469F760957095809590959B01CA
:10307000AC01BD01CF010895AA1BBB1B51E107C0E4
:10308000AA1FBB1FA617B70710F0A61BB70B881FF8
:10309000991F5A95A9F780959095BC01CD01089587
:1030A000EE0FFF1F0590F491E02D09945058BB27B7
:1030B000AA270E946E180C94E8190E94DA1938F0B9
:1030C0000E94E11920F039F49F3F19F426F40C9482
:1030D000D7190EF4E095E7FB0C94D119E92F0E9463
:1030E000F91958F3BA17620773078407950720F098
:1030F00079F4A6F50C941B1A0EF4E0950B2EBA2F5A
:10310000A02D0B01B90190010C01CA01A0011124ED
:10311000FF27591B99F0593F50F4503E68F11A1699
:10312000F040A22F232F342F4427585FF3CF46952A
:1031300037952795A795F0405395C9F77EF41F164C
:10314000BA0B620B730B840BBAF09150A1F0FF0F16
:10315000BB1F661F771F881FC2F70EC0BA0F621F02
:10316000731F841F48F4879577956795B795F795F2
:103170009E3F08F0B0CF9395880F08F09927EE0F87
:103180009795879508950E94AD1908F481E00895F8
:103190000E94DC180C94E8190E94E11958F00E9472
:1031A000DA1940F029F45F3F29F00C94D11951113C
:1031B0000C941C1A0C94D7190E94F91968F39923DE
:1031C000B1F3552391F3951B550BBB27AA27621723
:1031D0007307840738F09F5F5F4F220F331F441F30
:1031E000AA1FA9F335D00E2E3AF0E0E832D0915064
:1031F0005040E695001CCAF72BD0FE2F29D0660F51
:10320000771F881FBB1F261737074807AB07B0E893
:1032100009F0BB0B802DBF01FF2793585F4F3AF099
:103220009E3F510578F00C94D1190C941C1A5F3F05
:10323000E4F3983ED4F3869577956795B795F7951F
:103240009F5FC9F7880F911D9695879597F9089507
:10325000E1E0660F771F881FBB1F621773078407A3
:10326000BA0720F0621B730B840BBA0BEE1F88F7B2
:10327000E09508950E9441196894B1110C941C1AAC
:1032800008950E94011A88F09F5798F0B92F992746
:10329000B751B0F0E1F0660F771F881F991F1AF041
:1032A000BA95C9F714C0B13091F00E941B1AB1E071
:1032B00008950C941B1A672F782F8827B85F39F070
:1032C000B93FCCF3869577956795B395D9F73EF4DA
:1032D00090958095709561957F4F8F4F9F4F089582
:1032E000E89409C097FB3EF49095809570956195A0
:1032F0007F4F8F4F9F4F9923A9F0F92F96E9BB2756
:103300009395F695879577956795B795F111F8CFD1
:10331000FAF4BB0F11F460FF1BC06F5F7F4F8F4F3C
:103320009F4F16C0882311F096E911C0772321F032
:103330009EE8872F762F05C0662371F096E8862FCA
:1033400070E060E02AF09A95660F771F881FDAF721
:10335000880F9695879597F90895990F0008550F4E
:10336000AA0BE0E8FEEF16161706E807F907C0F00B
:1033700012161306E407F50798F0621B730B840B13
:10338000950B39F40A2661F0232B242B252B21F4ED
:1033900008950A2609F4A140A6958FEF811D811D8D
:1033A000089597F99F6780E870E060E008959FEFC7
:1033B00080EC089500240A941616170618060906CC
:1033C000089500240A94121613061406050608959B
:1033D000092E0394000C11F4882352F0BB0F40F423
:1033E000BF2B11F460FF04C06F5F7F4F8F4F9F4F63
:1033F000089557FD9058440F551F59F05F3F71F0E5
:103400004795880F97FB991F61F09F3F79F087954B
:103410000895121613061406551FF2CF4695F1DFD4
:1034200008C0161617061806991FF1CF8695710564
:10343000610508940895E894BB2766277727CB0198
:1034400097F908950E94AD1908F48FEF08950E942E
:103450003A1A0C94E8190E94DA1938F00E94E1191E
:1034600020F0952311F00C94D1190C94D719112444
:103470000C941C1A0E94F91970F3959FC1F3950FD3
:1034800050E0551F629FF001729FBB27F00DB11DE8
:10349000639FAA27F00DB11DAA1F649F6627B00D78
:1034A000A11D661F829F2227B00DA11D621F739F61
:1034B000B00DA11D621F839FA00D611D221F749F6F
:1034C0003327A00D611D231F849F600D211D822FB6
:1034D000762F6A2F11249F5750409AF0F1F08823DD
:1034E0004AF0EE0FFF1FBB1F661F771F881F91500A
:1034F0005040A9F79E3F510580F00C94D1190C94CF
:103500001C1A5F3FE4F3983ED4F386957795679550
:10351000B795F795E7959F5FC1F7FE2B880F911D33
:103520009695879597F908950E94AD19880B990B88
:1035300008950F931F93CF93DF938230910510F47A
:1035400082E090E0E0915B04F0915C0420E030E0E8
:10355000A0E0B0E0309719F14081518102811381E0
:1035600048175907C8F08417950769F4109731F088
:1035700012960C93129713961C9327C000935B042A
:1035800010935C0422C02115310519F0421753072E
:1035900018F49A01BD01EF01DF01F801DBCF21151D
:1035A0003105F9F0281B390B2430310580F48A816C
:1035B0009B816115710521F0FB019383828304C017
:1035C00090935C0480935B04FE01329644C0FE013C
:1035D000E20FF31F8193919322503109398328839D
:1035E0003AC02091590430915A04232B41F4209180
:1035F00002013091030130935A0420935904209121
:103600000001309101012115310541F42DB73EB77C
:103610004091040150910501241B350BE0915904A0
:10362000F0915A04E217F307A0F42E1B3F0B281762
:10363000390778F0AC014E5F5F4F2417350748F02B
:103640004E0F5F1F50935A044093590481939193F6
:1036500002C0E0E0F0E0CF01DF91CF911F910F9128
:103660000895CF93DF93009709F481C0FC0132974E
:1036700013821282A0915B04B0915C04109781F4D4
:1036800020813181820F931F2091590430915A0477
:103690002817390751F5F0935A04E093590467C08D
:1036A000ED0120E030E0CE17DF0740F44A815B8176
:1036B0009E0141155105F1F0EA01F5CFD383C28394
:1036C00040815181840F951FC817D90759F488810B
:1036D0009981840F951F0296918380838A819B81B3
:1036E000938382832115310529F4F0935C04E093E0
:1036F0005B043DC0E901FB83EA8349915991C40F02
:10370000D51FEC17FD0761F480819181840F951F0F
:103710000296E90199838883828193819B838A83BE
:10372000E0E0F0E012968D919C911397009719F0CC
:10373000FD01DC01F7CF8D919C9111979D012E5FCA
:103740003F4F820F931F2091590430915A0428173C
:10375000390769F4309729F410925C0410925B04E5
:1037600002C013821282B0935A04A0935904DF91CD
:10377000CF91089581E090E0F8940C94BF1BF894E9
:02378000FFCF79
:1037820000005D04200000000000990367068F0717
:103792008E0700000000940767068F078E07DA0A7B
:1037A200A007000000006108DC099E07000000007D
:1037B200730767068F078E07960AD00A000000007B
:1037C200510AB10BA2075E00BC00770100000000A5
:1037D200920700000000000000008402AC0200001A
:1037E2000000BE007B0100000000A7006F01000086
:1037F20000007D01A6007901000040001400540081
:1038020000000000400113018F07E7000B01F700E1
:10381200E80000000000920767068F078E0700008D
:103822000000FA06670691064707C206A006B4061C
:1038320050524F4752414D3A00535441525400495D
:103842004E544547205245534554005056414C3A38
:10385200004956414C3A004456414C3A0043543ACE
:10386200002054543A0020443A000D0A006E616E62
:1038720000696E66006F7666004C63644B65797012
:1038820061643A3A7365744261636B4C6967687448
:10389200436F6E74726F6C2C2069734C6364426167
:1038A200636B4C696768744F6E3D31004C63644BC7
:1038B20065797061643A3A7365744261636B4C690D
:1038C200676874436F6E74726F6C2C2069734C63FB
:1038D200644261636B4C696768744F6E3D300020CF
:1038E20020202020202020202020202020202000F6
:00000001FF
