:100000000C9472000C949A000C949A000C949A0030
:100010000C949A000C949A000C949A000C949A00F8
:100020000C949A000C949A000C949A000C949A00E8
:100030000C949A000C949A000C949A000C949A00D8
:100040000C948A040C949A000C94AA020C948402D6
:100050000C949A000C949A000C949A000C949A00B8
:100060000C949A000C949A00005EBCE2613FDD8320
:10007000C29C7E20A3FD1F41009D23BE46DB65F888
:100080008C11AF32CA57E974000000080002010069
:100090000003040700000000000000000000000052
:1000A000250028002B0000000000240027002A0063
:1000B00000000000230026002900040404040404B6
:1000C0000404020202020202030303030303010207
:1000D00004081020408001020408102001020408D6
:1000E0001020CC0A11241FBECFEFD8E0DEBFCDBF59
:1000F00011E0A0E0B1E0E4E6FDE102C005900D9260
:10010000A835B107D9F722E0A8E5B1E001C01D92FA
:10011000A137B207E1F710E0C2E7D0E004C02197B1
:10012000FE010E94620CC137D107C9F70E94D404B6
:100130000C94B00E0C940000CF92DF92EF92FF92DD
:100140000F931F93CF93DF936C017A018B01C0E073
:10015000D0E0CE15DF0581F0D8016D918D01D6017B
:10016000ED91FC910190F081E02DC6010995892B5C
:1001700011F02196EECF7E01C701DF91CF911F9143
:100180000F91FF90EF90DF90CF900895089580E059
:1001900090E00895FC01538D448D252F30E0842F8D
:1001A00090E0821B930B541710F0CF96089501979F
:1001B0000895FC01918D828D981761F0828DDF0189
:1001C000A80FB11D5D968C91928D9F5F9F73928F4A
:1001D00090E008958FEF9FEF0895FC01918D828D3F
:1001E000981731F0828DE80FF11D858D90E008950C
:1001F0008FEF9FEF0895FC01918D228D892F90E064
:10020000805C9F4F821B91098F73992708958DE51C
:1002100091E00E94FB0021E0892B09F420E0822F6D
:100220000895FC01848DDF01A80FB11DA35ABF4FB3
:100230002C91848D90E001968F739927848FA689E5
:10024000B7892C93A089B1898C91837080648C9339
:10025000938D848D981306C00288F389E02D8081E8
:100260008F7D80830895EF92FF920F931F93CF931A
:10027000DF93EC0181E0888F9B8D8C8D981305C0F6
:10028000E889F989808185FD26C0F62E0B8D10E066
:100290000F5F1F4F0F731127E02E8C8DE8120CC0DB
:1002A0000FB607FCFACFE889F989808185FFF5CF81
:1002B000CE010E941101F1CF8B8DFE01E80FF11DDF
:1002C000E35AFF4FF0829FB7F8940B8FEA89FB89BE
:1002D000808180620AC09FB7F894EE89FF896083AD
:1002E000E889F98980818370806480839FBF81E081
:1002F00090E0DF91CF911F910F91FF90EF900895C3
:10030000CF93DF93EC01888D8823C9F0EA89FB89BC
:10031000808185FD05C0A889B9898C9186FD0FC0B3
:100320000FB607FCF5CF808185FFF2CFA889B98988
:100330008C9185FFEDCFCE010E941101E7CFDF91B7
:10034000CF91089580E090E0892B29F00E94070169
:1003500081110C9400000895DC0180E0615098F058
:100360002D91982F9227E92FEF70F0E0E859FF4F79
:10037000249192959F70E92FF0E0E858FF4FE491A7
:10038000822F8E27EBCF0895FC0190810180F281AE
:10039000E02DF8948181892B81832281892F80959A
:1003A00028232283A7E0B0E01197F1F7218182236F
:1003B0008183A3E2B0E01197F1F780817894EFECAC
:1003C000F0E03197F1F7982381E009F480E0089597
:1003D000FC0190810180F281E02D892F809560FFE2
:1003E00012C0F8942281822382838181892B8183A8
:1003F000A3E2B0E01197F1F78281982B9283789471
:1004000087ED90E011C0F89422818223828381815C
:10041000892B8183AFEFB0E01197F1F78281982BA0
:10042000928378948FE090E00197F1F70895DF923E
:10043000EF92FF920F931F93CF93DF93EC01D62E91
:10044000E42E08E010E0FF24F39461E08D2D8F216D
:1004500009F460E0CE010E94E801FF0C015011098F
:10046000A1F7E11010C0F894E981FA8191818881A7
:10047000809589238183E981FA81928188818095A1
:10048000892382837894DF91CF911F910F91FF9000
:10049000EF90DF900895DC012C911196ED91FC9185
:1004A0001297F8948181922F909589238183789473
:1004B0008DE743E050E0815021F1DA011197F1F727
:1004C00030813223C1F3F894828189238283818130
:1004D000822B81837894ABE7B7E01197F1F7F8941A
:1004E00081819823918383E191E00197F1F78081E5
:1004F000282381E009F080E07894E3E6F6E0319784
:10050000F1F708950E94AB0E1F920F920FB60F9253
:1005100011242F933F934F935F936F937F938F9308
:100520009F93AF93BF93EF93FF938DE591E00E946C
:100530001101FF91EF91BF91AF919F918F917F91A9
:100540006F915F914F913F912F910F900FBE0F9040
:100550001F9018951F920F920FB60F9211242F9390
:100560008F939F93EF93FF93E0916D01F0916E0154
:100570008081E0917301F091740182FD12C090813D
:10058000809176018F5F8F7320917701821751F0F0
:10059000E0917601F0E0E35AFE4F958F809376016B
:1005A00001C08081FF91EF919F918F912F910F90CA
:1005B0000FBE0F901F901895009769F0FC010190F5
:1005C0000020E9F73197AF01481B590BBC018DE5BD
:1005D00091E00C949C0080E090E00895EBE8F0E05E
:1005E0009491E1EDF0E02491EDEBF0E0E491EE2365
:1005F00009F43CC0992339F1933091F038F49130EB
:10060000A9F0923001F594B59F7D12C0973091F01A
:100610009830A1F09430B9F4909180009F7D03C090
:10062000909180009F77909380000DC094B59F7744
:1006300094BD09C09091B0009F7703C09091B00025
:100640009F7D9093B000F0E0EE0FFF1FE456FF4F48
:10065000A591B4919FB7F894811104C08C91209515
:10066000282302C0EC912E2B2C939FBF08958F92CC
:100670009F92AF92BF920F931F93CF93DF93CDB70B
:10068000DEB7A1970FB6F894DEBF0FBECDBF19A29B
:10069000423008F44AE08E010F5D1F4F842E912CEA
:1006A000A12CB12CA50194010E942C0CE62FB901BC
:1006B000CA0101501109EA3014F4E05D01C0E95C9F
:1006C000D801EC93232B242B252B61F7C8010E9422
:1006D000DC02A1960FB6F894DEBF0FBECDBFDF914E
:1006E000CF911F910F91BF90AF909F908F900895E1
:1006F0008F929F92AF92BF92CF92DF92EF92FF9232
:100700000F931F93CF93DF936B017C01142F9B01F9
:10071000AC010E94A60E882319F08CE491E027C05A
:1007200046015701E894B7F82FEF3FEF4FE75FE737
:10073000C501B4010E94A60E81110DC02FEF3FEF3D
:100740004FE75FE7C501B4010E94D50C18161CF4F1
:1007500080E591E00CC02FEF3FEF4FE75FE4C7016A
:10076000B6010E94340E181684F484E591E0DF91FE
:10077000CF911F910F91FF90EF90DF90CF90BF909E
:10078000AF909F908F900C94DC022FEF3FEF4FE7DC
:100790005FECC701B6010E94D50C87FDE6CF20E0D3
:1007A00030E0A901C701B6010E94D50C87FF0BC03C
:1007B0006DE28DE591E00E943301EC01F7FAF094CF
:1007C000F7F8F09402C0C0E0D0E000E060E070E034
:1007D00080E09FE3101741F020E030E040E251E478
:1007E0000E94DA0C0F5FF6CFA70196010E94690CF8
:1007F0006B017C010E94530D4B015C014AE00E9499
:100800003703C80FD91F1123B9F1C501B4010E94E4
:10081000820D9B01AC01C701B6010E94680C6B01FF
:100820007C016EE28DE591E00E943301C80FD91F73
:1008300020E030E040E251E4C701B6010E94390EE9
:100840004B015C010E94530D6B01E12CF12C4AE03D
:10085000C701B6010E943703C80FD91FC701B601EF
:100860000E94820D9B01AC01C501B4010E94680C7D
:100870006B017C011150E1F6CE01DF91CF911F9108
:100880000F91FF90EF90DF90CF90BF90AF909F902F
:100890008F900895CF93DF9342E00E947803EC019C
:1008A0008EE191E00E94DC028C0F9D1FDF91CF91C1
:1008B00008953FB7F89480915F0290916002A091F3
:1008C0006102B091620226B5A89B05C02F3F19F0C6
:1008D0000196A11DB11D3FBFBA2FA92F982F8827C0
:1008E000820F911DA11DB11DBC01CD0142E0660F1B
:1008F000771F881F991F4A95D1F708952FB7F8944D
:1009000060915B0270915C0280915D0290915E0249
:100910002FBF08951F920F920FB60F9211242F939D
:100920003F938F939F93AF93BF9380915B0290917E
:100930005C02A0915D02B0915E0230915A0223E008
:10094000230F2D3720F40196A11DB11D05C026E807
:10095000230F0296A11DB11D20935A0280935B02C2
:1009600090935C02A0935D02B0935E0280915F025F
:1009700090916002A0916102B09162020196A11D66
:10098000B11D80935F0290936002A0936102B093C7
:100990006202BF91AF919F918F913F912F910F90E4
:1009A0000FBE0F901F901895CF93DF93CDB7DEB792
:1009B0006D970FB6F894DEBF0FBECDBF789484B5A7
:1009C000826084BD84B5816084BD85B5826085BD4B
:1009D00085B5816085BD80916E00816080936E00D9
:1009E00010928100809181008260809381008091CB
:1009F000810081608093810080918000816080937C
:100A000080008091B10084608093B1008091B0003B
:100A100081608093B00080917A00846080937A0036
:100A200080917A00826080937A0080917A00816060
:100A300080937A0080917A00806880937A00109287
:100A4000C100E1EDF0E02491EDEBF0E0849188232A
:100A500099F090E0880F991FFC01EA55FF4FA5918E
:100A6000B491FC01E456FF4F859194918FB7F894AF
:100A7000EC91E22BEC938FBFE0916D01F0916E0150
:100A800082E08083E0916901F0916A011082E09137
:100A90006B01F0916C018FEC808310927501E091F5
:100AA0007101F091720186E08083E0916F01F09115
:100AB0007001808180618083E0916F01F09170010D
:100AC000808188608083E0916F01F0917001808166
:100AD00080688083E0916F01F091700180818F7D4B
:100AE000808388E191E00E94DC028EE191E00E9427
:100AF000DC020E947E046093590170935A01809336
:100B00005B0190935C0180E090E0A0E2B2E480930E
:100B1000FA019093FB01A093FC01B093FD011092A8
:100B20003C0210923D0210923E0210923F02812C34
:100B3000912CBAE7AB2EB4E4BB2E80924002909287
:100B40004102A0924202B09243028091440200917D
:100B5000240210912502882309F48CC4D801CD9079
:100B6000DD90ED90FC90A5019401C701B6010E94B3
:100B7000340E181634F4F80180829182A282B38276
:100B80000FC020E030E0A901C701B6010E94D50CDA
:100B900087FF06C0D8011D921D921D921C921397CB
:100BA00080902C0290902D02A0902E02B0902F02E7
:100BB000C0904002D0904102E0904202F090430287
:100BC000A7019601C501B4010E94340E181684F0E5
:100BD000C0903C02D0903D02E0903E02F0903F0277
:100BE000A7019601C501B4010E94D50C87FF08C07A
:100BF000C0922C02D0922D02E0922E02F0922F028F
:100C0000609138027091390280913A0290913B02D2
:100C10000E94820D9B01AC0160E070E48CE995E4D8
:100C20000E94DA0C6B017C019B01AC016091160201
:100C30007091170280911802909119020E94390E4A
:100C40006093160270931702809318029093190212
:100C5000A701960160911A0270911B0280911C02FB
:100C600090911D020E94DA0C60931A0270931B028D
:100C700080931C0290931D0288E893E1A0E0B0E00D
:100C80008093380290933902A0933A02B0933B02CA
:100C900081E08093440201E01E01B2E12B0E311C81
:100CA00080914C0290914D020E944B0240E06CEC0E
:100CB00080914C0290914D020E9417024091460291
:100CC00064E480914C0290914D020E941702809141
:100CD0004802882309F462C0E0914702E950E330FA
:100CE00040F4F0E0EE0FFF1FE050FF4FC080D180D6
:100CF00004C0EEEECE2EE2E0DE2E80914902882383
:100D000011F18091460281111EC00E947E044B01A8
:100D10005C010D2C000CEE08FF0880914C029091B4
:100D20004D020E94C4018130C9F10E947E04DC01A1
:100D3000CB018C199D09AE09BF0988159905AA0533
:100D4000BB0558F32BC00D2C000CEE08FF080E94C9
:100D500059044B015C01C114D104E104F104F1F028
:100D60000E945904DC01CB0188199909AA09BB0921
:100D7000883E9340A105B10570F3E1E0CE1AD10899
:100D8000E108F108F8EE8F0EF3E09F1EA11CB11CE4
:100D9000C114D104E104F10419F7DDCFE0904C0255
:100DA000F0904D02D7011B961C921B971D961C922A
:100DB0001D971C961C925701BBE0AB0EB11C67013E
:100DC000E3E0CE0ED11CF5011292EC15FD05E1F722
:100DD000C7010E944B0281110AC0D7011B961C92C9
:100DE0001B971D961C921D971C961C9273C040E089
:100DF00060EFC7010E94170299249394712C612C13
:100E000011E0C7010E94C401882EC7010E94C401DD
:100E1000B1E08B1203C08130C1F437C0272D30E020
:100E200088121DC0F7018385181730F4E20FF31FF5
:100E30008381892151F402C0811739F0812C193046
:100E400068F4D7011C961C9309C0F701E70DF11D4A
:100E50008381892983838824839409C0612EF701C3
:100E6000E20FF31F9381892D809589238383682D59
:100E7000C7010E94E8011F5F990C19F4739499242B
:100E80009394B7E0B71508F0BCCF1134F8F0F70130
:100E90006386611001C00587D70113968C91882362
:100EA000A9F07E01FAE0EF0EF11CF7014701D6012F
:100EB0008D916D018193AA16BB06C9F767E0C70142
:100EC0000E94AC019989891305C03DC2F7011386C0
:100ED0001586148660E070E08EEF92EC609302025B
:100EE0007093030280930402909305028091440260
:100EF000882309F49AC10E947E046E8B7F8B888FB1
:100F0000998F8091280290912902A0912A02B09194
:100F10002B024E895F89688D798D481B590B6A0BAE
:100F20007B0B8091380290913902A0913A02B091E6
:100F30003B02481759076A077B0708F476C1E0911E
:100F40002202F091230280819181A281B3818A8B58
:100F50009B8BAC8BBD8BE0912602F09127029C010C
:100F6000AD0160817181828193810E94680C2B01A7
:100F70003C01209130023091310240913202509177
:100F800033026A897B898C899D890E94680C6B0178
:100F90007C0120913402309135024091360250910B
:100FA0003702C301B2010E94390E20E030E0A901EE
:100FB0000E94D50C18168CF010922C0210922D0263
:100FC00010922E0210922F0281E291E00E94DC0228
:100FD0008EE191E00E94DC022AC02AE939E949E762
:100FE0005FE360912C0270912D0280912E0290910E
:100FF0002F020E94390E4B015C01209116023091A4
:1010000017024091180250911902C301B2010E94C7
:10101000390E9B01AC01C501B4010E94690C6093BB
:101020002C0270932D0280932E0290932F02109128
:101030004502111120C020911202309113024091FB
:10104000140250911502C701B6010E94390E9B018E
:10105000AC0160912C0270912D0280912E02909132
:101060002F020E94680C60932C0270932D028093D3
:101070002E0290932F0280912C0290912D02A0912C
:101080002E02B0912F028A8F9B8FAC8FBD8F8090E4
:10109000400290904102A0904202B0904302A5010C
:1010A0009401BC01CD010E94340E181694F080907A
:1010B0003C0290903D02A0903E02B0903F02A501FC
:1010C00094016A8D7B8D8C8D9D8D0E94D50C87FF40
:1010D00008C080922C0290922D02A0922E02B09213
:1010E0002F02112379F020911202309113024091C6
:1010F000140250911502C301B2010E94390E4B0136
:101100005C0103C0812C912C54018DE291E00E947E
:10111000DC02C501B4010E944A0483E391E00E940D
:10112000DC0260912C0270912D0280912E02909130
:101130002F020E944A0489E391E00E94DC02209180
:101140001A0230911B0240911C0250911D02C701EE
:10115000B6010E94390E0E944A0420911A02309171
:101160001B0240911C0250911D02C701B6010E9452
:10117000390E9B01AC0160912C0270912D0280917F
:101180002E0290912F020E94680CA50194010E94EA
:10119000690C4B015C01C0904002D0904102E0908C
:1011A0004202F09043029601A7010E94340E1816E5
:1011B00094F0C0903C02D0903D02E0903E02F0904E
:1011C0003F029601A701B401C5010E94D50C87FD1D
:1011D00002C064017501E0912402F0912502C6016C
:1011E000D70180839183A283B3838A899B89AC8949
:1011F000BD898093300290933102A0933202B09364
:10120000330240923402509235026092360270925C
:1012100037028E899F89A88DB98D8093280290937B
:101220002902A0932A02B0932B020E947E04C09050
:101230005901D0905A01E0905B01F0905C01AB0144
:10124000BC014C195D096E097F09493E5340610597
:10125000710508F454C0D701C60188519C4FAF4FA7
:10126000BF4F8093590190935A01A0935B01B093B3
:101270005C0120E030E04AE754E46091FE017091A7
:10128000FF0180910002909101020E94DA0C20E09F
:1012900030E048EC52E40E94390E0E944C0D6093FD
:1012A00058018FE391E00E94DC026091020270918C
:1012B0000302809104029091050242E00E947803AB
:1012C00083E491E00E94DC026091FA017091FB01DD
:1012D0008091FC019091FD0142E00E94780388E436
:1012E00091E00E94DC026091580170E080E090E0A3
:1012F0004AE00E9437038EE191E00E94DC020E94E6
:101300007E04C0905901D0905A01E0905B01F090AA
:101310005C016C197D098E099F090E94820D209144
:10132000FE013091FF0140910002509101020E94A4
:10133000340E181614F481E001C080E00E94EE0221
:101340000E94A201ADCC80914C0290914D020E946E
:101350004B02882309F48BC0C0904C02D0904D0200
:1013600040E065E5C6010E941702F70161917F0127
:1013700040E0C6010E941702E214F304B1F740E016
:101380006EEB80914C0290914D020E941702AE01CB
:101390004F5F5F4F7A01542E6F2CC0904C02D0905B
:1013A0004D0278E0A72EB12C10E077247394C6018B
:1013B0000E94C40181111729770C51E0A51AB108C8
:1013C000B1F7D7011D937D01A815B90531F78091BB
:1013D0004C0290914D020E944B02813009F047C0AF
:1013E00068E0852D962D0E94AC01998589133FC038
:1013F0002A8130E0C901982F8827990F990F990FFA
:101400006981B8E06B9FB00111249C01262B372B1A
:101410008A858031C9F4688570E08F81FB01E81B03
:10142000F109CF019695982F8827979587950E9467
:10143000180C60517109207F53E0220F331F5A9519
:10144000E1F7620F731F01C0B9016138F4EE7F0745
:101450000CF440CD072E000C880B990B0E94840DD4
:1014600020E030E040E05CE30E94390E37CD60E8D8
:1014700074EEEBCF609138027091390280913A029C
:1014800090913B020E94820D9B01AC0160E070E4F0
:101490008CE995E40E94DA0C6B017C019B01AC01A4
:1014A00060911602709117028091180290911902B2
:1014B0000E94390E609316027093170280931802EF
:1014C00090931902A701960160911A0270911B0274
:1014D00080911C0290911D020E94DA0C60931A0206
:1014E00070931B0280931C0290931D0288E893E185
:1014F000A0E0B0E08093380290933902A0933A02C2
:10150000B0933B02D801CD90DD90ED90FC90C0925D
:101510002C02D0922D02E0922E02F0922F02E09146
:101520002202F091230280819181A281B381809374
:10153000300290933102A0933202B09333021092A2
:10154000340210923502109236021092370220E0D7
:1015500030E04AE754E4C701B6010E94340E181681
:101560004CF480922C0290922D02A0922E02B09206
:101570002F028ECB20E030E0A901C701B6010E9406
:10158000D50C87FF85CB10922C0210922D02109261
:101590002E0210922F027CCB0F931F93CF93DF93D9
:1015A0001092600110925F0188EE93E0A0E0B0E03D
:1015B0008093610190936201A0936301B0936401F1
:1015C0008AE091E090935E0180935D0185EC90E06C
:1015D00090936A018093690184EC90E090936C0190
:1015E00080936B0180EC90E090936E0180936D018D
:1015F00081EC90E09093700180936F0182EC90E019
:10160000909372018093710186EC90E09093740145
:1016100080937301109276011092770110927801F5
:1016200010927901E0EDF0E02491ECEBF0E0849190
:101630008823C1F090E0880F991FFC01EA55FF4F05
:10164000C591D491FC01E456FF4FA591B4919FB789
:10165000F8948881E22FE0958E2388838C91E8238B
:10166000EC939FBFE0EDF0E0E491E0936302ECEBDC
:10167000F0E0E491F0E0EE0FFF1FE055FF4F8591A1
:101680009491909365028093640210926E0210927E
:10169000700210926F02EEE6F2E086E692E012929D
:1016A0008E179F07E1F783E692E090934D028093B7
:1016B0004C0210924A0210924B021092460289E0AC
:1016C0008093470281E08093480280934902109200
:1016D0005902109258022EEF31E0309325022093E8
:1016E000240222E032E030932302209322022AEFE8
:1016F00031E0309327022093260210924402109288
:101700003C0210923D0210923E0210923F0240E0D5
:1017100050E06FE773E440934002509341026093BE
:1017200042027093430244E650E060E070E0409370
:1017300038025093390260933A0270933B0221E0E1
:1017400030E030931F0220931E0230932102209339
:1017500020028093450280E090E0A6E9B3E4809304
:10176000060290930702A0930802B093090280E05A
:1017700090E0A0EAB1E480930A0290930B02A09358
:101780000C02B0930D0280E090E0AAE7B5EC8093E4
:101790000E0290930F02A0931002B093110280E00A
:1017A00090E0A6E9B3EC8093120290931302A09309
:1017B0001402B093150280E090E0A0E0B0EC8093BA
:1017C000160290931702A0931802B093190280E0BA
:1017D00090E4ACE1B7E480931A0290931B02A093CB
:1017E0001C02B0931D020E947E04009138021091E9
:1017F000390220913A0230913B02DC01CB01801B7F
:10180000910BA20BB30B8093280290932902A09313
:101810002A02B0932B0210923402109235021092D9
:10182000360210923702DF91CF911F910F910895E8
:1018300097FB072E16F4009407D077FD09D00E947D
:101840004E0C07FC05D03EF4909581959F4F08956E
:10185000709561957F4F0895A1E21A2EAA1BBB1BBC
:10186000FD010DC0AA1FBB1FEE1FFF1FA217B3076C
:10187000E407F50720F0A21BB30BE40BF50B661F82
:10188000771F881F991F1A9469F760957095809546
:1018900090959B01AC01BD01CF010895AA1BBB1B14
:1018A00051E107C0AA1FBB1FA617B70710F0A61B60
:1018B000B70B881F991F5A95A9F780959095BC0181
:1018C000CD010895EE0FFF1F0590F491E02D0994CE
:1018D0005058BB27AA270E94800C0C94FA0D0E9436
:1018E000EC0D38F00E94F30D20F039F49F3F19F40D
:1018F00026F40C94E90D0EF4E095E7FB0C94E30D4F
:10190000E92F0E940B0E58F3BA176207730784077A
:10191000950720F079F4A6F50C942D0E0EF4E095C1
:101920000B2EBA2FA02D0B01B90190010C01CA0199
:10193000A0011124FF27591B99F0593F50F4503E44
:1019400068F11A16F040A22F232F342F4427585F36
:10195000F3CF469537952795A795F0405395C9F74E
:101960007EF41F16BA0B620B730B840BBAF0915006
:10197000A1F0FF0FBB1F661F771F881FC2F70EC0A5
:10198000BA0F621F731F841F48F487957795679578
:10199000B795F7959E3F08F0B0CF9395880F08F064
:1019A0009927EE0F9795879508950E94BF0D08F42B
:1019B00081E008950E94EE0C0C94FA0D0E94F30D44
:1019C00058F00E94EC0D40F029F45F3F29F00C9490
:1019D000E30D51110C942E0E0C94E90D0E940B0E88
:1019E00068F39923B1F3552391F3951B550BBB274E
:1019F000AA2762177307840738F09F5F5F4F220F93
:101A0000331F441FAA1FA9F335D00E2E3AF0E0E889
:101A100032D091505040E695001CCAF72BD0FE2FD3
:101A200029D0660F771F881FBB1F26173707480767
:101A3000AB07B0E809F0BB0B802DBF01FF2793581F
:101A40005F4F3AF09E3F510578F00C94E30D0C94F3
:101A50002E0E5F3FE4F3983ED4F386957795679515
:101A6000B795F7959F5FC9F7880F911D9695879554
:101A700097F90895E1E0660F771F881FBB1F621773
:101A800073078407BA0720F0621B730B840BBA0B31
:101A9000EE1F88F7E09508950E94530D6894B111E8
:101AA0000C942E0E08950E94130E88F09F5798F004
:101AB000B92F9927B751B0F0E1F0660F771F881F53
:101AC000991F1AF0BA95C9F714C0B13091F00E946D
:101AD0002D0EB1E008950C942D0E672F782F8827D6
:101AE000B85F39F0B93FCCF3869577956795B39594
:101AF000D9F73EF490958095709561957F4F8F4F03
:101B00009F4F0895E89409C097FB3EF49095809507
:101B1000709561957F4F8F4F9F4F9923A9F0F92FB3
:101B200096E9BB279395F695879577956795B79531
:101B3000F111F8CFFAF4BB0F11F460FF1BC06F5F17
:101B40007F4F8F4F9F4F16C0882311F096E911C029
:101B5000772321F09EE8872F762F05C0662371F04A
:101B600096E8862F70E060E02AF09A95660F771F5E
:101B7000881FDAF7880F9695879597F90895990F3A
:101B80000008550FAA0BE0E8FEEF16161706E80747
:101B9000F907C0F012161306E407F50798F0621B68
:101BA000730B840B950B39F40A2661F0232B242B3D
:101BB000252B21F408950A2609F4A140A6958FEF5C
:101BC000811D811D089597F99F6780E870E060E0AE
:101BD00008959FEF80EC089500240A9416161706C6
:101BE00018060906089500240A941216130614060E
:101BF00005060895092E0394000C11F4882352F071
:101C0000BB0F40F4BF2B11F460FF04C06F5F7F4F28
:101C10008F4F9F4F089557FD9058440F551F59F00F
:101C20005F3F71F04795880F97FB991F61F09F3FC9
:101C300079F087950895121613061406551FF2CFF2
:101C40004695F1DF08C0161617061806991FF1CF42
:101C500086957105610508940895E894BB27662769
:101C60007727CB0197F908950E94BF0D08F48FEFF5
:101C700008950E944C0E0C94FA0D0E94EC0D38F061
:101C80000E94F30D20F0952311F00C94E30D0C94B9
:101C9000E90D11240C942E0E0E940B0E70F3959FEB
:101CA000C1F3950F50E0551F629FF001729FBB2753
:101CB000F00DB11D639FAA27F00DB11DAA1F649FEF
:101CC0006627B00DA11D661F829F2227B00DA11DA2
:101CD000621F739FB00DA11D621F839FA00D611D28
:101CE000221F749F3327A00D611D231F849F600D49
:101CF000211D822F762F6A2F11249F5750409AF072
:101D0000F1F088234AF0EE0FFF1FBB1F661F771FFD
:101D1000881F91505040A9F79E3F510580F00C94C8
:101D2000E30D0C942E0E5F3FE4F3983ED4F38695BA
:101D300077956795B795F795E7959F5FC1F7FE2B68
:101D4000880F911D9695879597F908950E94BF0D6C
:101D5000880B990B089581E090E0F8940C94B00EF4
:041D6000F894FFCF25
:101D64005E00BC0077010000000033019C00CA0043
:101D74008001FB00D900ED005354415254000D0A78
:101D840000494E544547205245534554005056414E
:101D94004C3A004956414C3A004456414C3A0043AF
:101DA400543A002054543A0020443A006E616E00C4
:081DB400696E66006F7666009F
:00000001FF
